{
  "contractName": "CryptoSharksClub",
  "abi": [
    {
      "inputs": [],
      "stateMutability": "nonpayable",
      "type": "constructor"
    },
    {
      "anonymous": false,
      "inputs": [
        {
          "indexed": true,
          "internalType": "address",
          "name": "owner",
          "type": "address"
        },
        {
          "indexed": true,
          "internalType": "address",
          "name": "approved",
          "type": "address"
        },
        {
          "indexed": true,
          "internalType": "uint256",
          "name": "tokenId",
          "type": "uint256"
        }
      ],
      "name": "Approval",
      "type": "event"
    },
    {
      "anonymous": false,
      "inputs": [
        {
          "indexed": true,
          "internalType": "address",
          "name": "owner",
          "type": "address"
        },
        {
          "indexed": true,
          "internalType": "address",
          "name": "operator",
          "type": "address"
        },
        {
          "indexed": false,
          "internalType": "bool",
          "name": "approved",
          "type": "bool"
        }
      ],
      "name": "ApprovalForAll",
      "type": "event"
    },
    {
      "anonymous": false,
      "inputs": [
        {
          "indexed": true,
          "internalType": "address",
          "name": "previousOwner",
          "type": "address"
        },
        {
          "indexed": true,
          "internalType": "address",
          "name": "newOwner",
          "type": "address"
        }
      ],
      "name": "OwnershipTransferred",
      "type": "event"
    },
    {
      "anonymous": false,
      "inputs": [
        {
          "indexed": true,
          "internalType": "address",
          "name": "from",
          "type": "address"
        },
        {
          "indexed": true,
          "internalType": "address",
          "name": "to",
          "type": "address"
        },
        {
          "indexed": true,
          "internalType": "uint256",
          "name": "tokenId",
          "type": "uint256"
        }
      ],
      "name": "Transfer",
      "type": "event"
    },
    {
      "inputs": [],
      "name": "MAX_MINT_PER_TX",
      "outputs": [
        {
          "internalType": "uint256",
          "name": "",
          "type": "uint256"
        }
      ],
      "stateMutability": "view",
      "type": "function",
      "constant": true
    },
    {
      "inputs": [],
      "name": "MAX_PRESALE_SUPPLY",
      "outputs": [
        {
          "internalType": "uint256",
          "name": "",
          "type": "uint256"
        }
      ],
      "stateMutability": "view",
      "type": "function",
      "constant": true
    },
    {
      "inputs": [],
      "name": "MAX_SUPPLY",
      "outputs": [
        {
          "internalType": "uint256",
          "name": "",
          "type": "uint256"
        }
      ],
      "stateMutability": "view",
      "type": "function",
      "constant": true
    },
    {
      "inputs": [],
      "name": "a1",
      "outputs": [
        {
          "internalType": "address",
          "name": "",
          "type": "address"
        }
      ],
      "stateMutability": "view",
      "type": "function",
      "constant": true
    },
    {
      "inputs": [
        {
          "internalType": "address",
          "name": "to",
          "type": "address"
        },
        {
          "internalType": "uint256",
          "name": "tokenId",
          "type": "uint256"
        }
      ],
      "name": "approve",
      "outputs": [],
      "stateMutability": "nonpayable",
      "type": "function"
    },
    {
      "inputs": [
        {
          "internalType": "address",
          "name": "owner",
          "type": "address"
        }
      ],
      "name": "balanceOf",
      "outputs": [
        {
          "internalType": "uint256",
          "name": "",
          "type": "uint256"
        }
      ],
      "stateMutability": "view",
      "type": "function",
      "constant": true
    },
    {
      "inputs": [],
      "name": "baseTokenURI",
      "outputs": [
        {
          "internalType": "string",
          "name": "",
          "type": "string"
        }
      ],
      "stateMutability": "view",
      "type": "function",
      "constant": true
    },
    {
      "inputs": [
        {
          "internalType": "uint256",
          "name": "tokenId",
          "type": "uint256"
        }
      ],
      "name": "getApproved",
      "outputs": [
        {
          "internalType": "address",
          "name": "",
          "type": "address"
        }
      ],
      "stateMutability": "view",
      "type": "function",
      "constant": true
    },
    {
      "inputs": [],
      "name": "initial_price",
      "outputs": [
        {
          "internalType": "uint256",
          "name": "",
          "type": "uint256"
        }
      ],
      "stateMutability": "view",
      "type": "function",
      "constant": true
    },
    {
      "inputs": [
        {
          "internalType": "address",
          "name": "owner",
          "type": "address"
        },
        {
          "internalType": "address",
          "name": "operator",
          "type": "address"
        }
      ],
      "name": "isApprovedForAll",
      "outputs": [
        {
          "internalType": "bool",
          "name": "",
          "type": "bool"
        }
      ],
      "stateMutability": "view",
      "type": "function",
      "constant": true
    },
    {
      "inputs": [],
      "name": "name",
      "outputs": [
        {
          "internalType": "string",
          "name": "",
          "type": "string"
        }
      ],
      "stateMutability": "view",
      "type": "function",
      "constant": true
    },
    {
      "inputs": [],
      "name": "owner",
      "outputs": [
        {
          "internalType": "address",
          "name": "",
          "type": "address"
        }
      ],
      "stateMutability": "view",
      "type": "function",
      "constant": true
    },
    {
      "inputs": [
        {
          "internalType": "uint256",
          "name": "tokenId",
          "type": "uint256"
        }
      ],
      "name": "ownerOf",
      "outputs": [
        {
          "internalType": "address",
          "name": "",
          "type": "address"
        }
      ],
      "stateMutability": "view",
      "type": "function",
      "constant": true
    },
    {
      "inputs": [],
      "name": "presaleActive",
      "outputs": [
        {
          "internalType": "bool",
          "name": "",
          "type": "bool"
        }
      ],
      "stateMutability": "view",
      "type": "function",
      "constant": true
    },
    {
      "inputs": [],
      "name": "price",
      "outputs": [
        {
          "internalType": "uint256",
          "name": "",
          "type": "uint256"
        }
      ],
      "stateMutability": "view",
      "type": "function",
      "constant": true
    },
    {
      "inputs": [],
      "name": "renounceOwnership",
      "outputs": [],
      "stateMutability": "nonpayable",
      "type": "function"
    },
    {
      "inputs": [],
      "name": "reserved",
      "outputs": [
        {
          "internalType": "uint256",
          "name": "",
          "type": "uint256"
        }
      ],
      "stateMutability": "view",
      "type": "function",
      "constant": true
    },
    {
      "inputs": [
        {
          "internalType": "address",
          "name": "from",
          "type": "address"
        },
        {
          "internalType": "address",
          "name": "to",
          "type": "address"
        },
        {
          "internalType": "uint256",
          "name": "tokenId",
          "type": "uint256"
        }
      ],
      "name": "safeTransferFrom",
      "outputs": [],
      "stateMutability": "nonpayable",
      "type": "function"
    },
    {
      "inputs": [
        {
          "internalType": "address",
          "name": "from",
          "type": "address"
        },
        {
          "internalType": "address",
          "name": "to",
          "type": "address"
        },
        {
          "internalType": "uint256",
          "name": "tokenId",
          "type": "uint256"
        },
        {
          "internalType": "bytes",
          "name": "data",
          "type": "bytes"
        }
      ],
      "name": "safeTransferFrom",
      "outputs": [],
      "stateMutability": "nonpayable",
      "type": "function"
    },
    {
      "inputs": [],
      "name": "saleActive",
      "outputs": [
        {
          "internalType": "bool",
          "name": "",
          "type": "bool"
        }
      ],
      "stateMutability": "view",
      "type": "function",
      "constant": true
    },
    {
      "inputs": [
        {
          "internalType": "address",
          "name": "operator",
          "type": "address"
        },
        {
          "internalType": "bool",
          "name": "approved",
          "type": "bool"
        }
      ],
      "name": "setApprovalForAll",
      "outputs": [],
      "stateMutability": "nonpayable",
      "type": "function"
    },
    {
      "inputs": [
        {
          "internalType": "bytes4",
          "name": "interfaceId",
          "type": "bytes4"
        }
      ],
      "name": "supportsInterface",
      "outputs": [
        {
          "internalType": "bool",
          "name": "",
          "type": "bool"
        }
      ],
      "stateMutability": "view",
      "type": "function",
      "constant": true
    },
    {
      "inputs": [],
      "name": "symbol",
      "outputs": [
        {
          "internalType": "string",
          "name": "",
          "type": "string"
        }
      ],
      "stateMutability": "view",
      "type": "function",
      "constant": true
    },
    {
      "inputs": [
        {
          "internalType": "uint256",
          "name": "index",
          "type": "uint256"
        }
      ],
      "name": "tokenByIndex",
      "outputs": [
        {
          "internalType": "uint256",
          "name": "",
          "type": "uint256"
        }
      ],
      "stateMutability": "view",
      "type": "function",
      "constant": true
    },
    {
      "inputs": [
        {
          "internalType": "address",
          "name": "owner",
          "type": "address"
        },
        {
          "internalType": "uint256",
          "name": "index",
          "type": "uint256"
        }
      ],
      "name": "tokenOfOwnerByIndex",
      "outputs": [
        {
          "internalType": "uint256",
          "name": "",
          "type": "uint256"
        }
      ],
      "stateMutability": "view",
      "type": "function",
      "constant": true
    },
    {
      "inputs": [
        {
          "internalType": "uint256",
          "name": "tokenId",
          "type": "uint256"
        }
      ],
      "name": "tokenURI",
      "outputs": [
        {
          "internalType": "string",
          "name": "",
          "type": "string"
        }
      ],
      "stateMutability": "view",
      "type": "function",
      "constant": true
    },
    {
      "inputs": [],
      "name": "totalSupply",
      "outputs": [
        {
          "internalType": "uint256",
          "name": "",
          "type": "uint256"
        }
      ],
      "stateMutability": "view",
      "type": "function",
      "constant": true
    },
    {
      "inputs": [
        {
          "internalType": "address",
          "name": "from",
          "type": "address"
        },
        {
          "internalType": "address",
          "name": "to",
          "type": "address"
        },
        {
          "internalType": "uint256",
          "name": "tokenId",
          "type": "uint256"
        }
      ],
      "name": "transferFrom",
      "outputs": [],
      "stateMutability": "nonpayable",
      "type": "function"
    },
    {
      "inputs": [
        {
          "internalType": "address",
          "name": "newOwner",
          "type": "address"
        }
      ],
      "name": "transferOwnership",
      "outputs": [],
      "stateMutability": "nonpayable",
      "type": "function"
    },
    {
      "inputs": [],
      "name": "whitelistActive",
      "outputs": [
        {
          "internalType": "bool",
          "name": "",
          "type": "bool"
        }
      ],
      "stateMutability": "view",
      "type": "function",
      "constant": true
    },
    {
      "inputs": [
        {
          "internalType": "address",
          "name": "",
          "type": "address"
        }
      ],
      "name": "whitelistReserved",
      "outputs": [
        {
          "internalType": "uint256",
          "name": "",
          "type": "uint256"
        }
      ],
      "stateMutability": "view",
      "type": "function",
      "constant": true
    },
    {
      "inputs": [
        {
          "internalType": "address",
          "name": "addr",
          "type": "address"
        }
      ],
      "name": "tokensOfOwner",
      "outputs": [
        {
          "internalType": "uint256[]",
          "name": "",
          "type": "uint256[]"
        }
      ],
      "stateMutability": "view",
      "type": "function",
      "constant": true
    },
    {
      "inputs": [
        {
          "internalType": "uint256",
          "name": "_amount",
          "type": "uint256"
        }
      ],
      "name": "mintWhitelist",
      "outputs": [],
      "stateMutability": "payable",
      "type": "function",
      "payable": true
    },
    {
      "inputs": [
        {
          "internalType": "uint256",
          "name": "_amount",
          "type": "uint256"
        }
      ],
      "name": "mintPresale",
      "outputs": [],
      "stateMutability": "payable",
      "type": "function",
      "payable": true
    },
    {
      "inputs": [
        {
          "internalType": "uint256",
          "name": "_amount",
          "type": "uint256"
        }
      ],
      "name": "mintToken",
      "outputs": [],
      "stateMutability": "payable",
      "type": "function",
      "payable": true
    },
    {
      "inputs": [
        {
          "internalType": "uint256",
          "name": "_amount",
          "type": "uint256"
        }
      ],
      "name": "mintReserved",
      "outputs": [],
      "stateMutability": "nonpayable",
      "type": "function"
    },
    {
      "inputs": [
        {
          "internalType": "address[]",
          "name": "_a",
          "type": "address[]"
        },
        {
          "internalType": "uint256[]",
          "name": "_amount",
          "type": "uint256[]"
        }
      ],
      "name": "editWhitelistReserved",
      "outputs": [],
      "stateMutability": "nonpayable",
      "type": "function"
    },
    {
      "inputs": [
        {
          "internalType": "bool",
          "name": "val",
          "type": "bool"
        }
      ],
      "name": "setWhitelistActive",
      "outputs": [],
      "stateMutability": "nonpayable",
      "type": "function"
    },
    {
      "inputs": [
        {
          "internalType": "bool",
          "name": "val",
          "type": "bool"
        }
      ],
      "name": "setPresaleActive",
      "outputs": [],
      "stateMutability": "nonpayable",
      "type": "function"
    },
    {
      "inputs": [
        {
          "internalType": "bool",
          "name": "val",
          "type": "bool"
        }
      ],
      "name": "setSaleActive",
      "outputs": [],
      "stateMutability": "nonpayable",
      "type": "function"
    },
    {
      "inputs": [
        {
          "internalType": "string",
          "name": "baseURI",
          "type": "string"
        }
      ],
      "name": "setBaseURI",
      "outputs": [],
      "stateMutability": "nonpayable",
      "type": "function"
    },
    {
      "inputs": [
        {
          "internalType": "uint256",
          "name": "newPrice",
          "type": "uint256"
        }
      ],
      "name": "setPrice",
      "outputs": [],
      "stateMutability": "nonpayable",
      "type": "function"
    },
    {
      "inputs": [
        {
          "internalType": "address[]",
          "name": "_a",
          "type": "address[]"
        }
      ],
      "name": "setAddresses",
      "outputs": [],
      "stateMutability": "nonpayable",
      "type": "function"
    },
    {
      "inputs": [
        {
          "internalType": "uint256",
          "name": "amount",
          "type": "uint256"
        }
      ],
      "name": "withdrawTeam",
      "outputs": [],
      "stateMutability": "payable",
      "type": "function",
      "payable": true
    }
  ],
  "bytecode": "0x60806040526000600a60146101000a81548160ff0219169083151502179055506000600a60156101000a81548160ff0219169083151502179055506000600a60166101000a81548160ff02191690831515021790555060c8600b55668e1bc9bf040000600c556040518060400160405280601581526020017f687474703a2f2f3136372e3137322e3234312e34380000000000000000000000815250600e9080519060200190620000b29291906200025e565b50348015620000c057600080fd5b506040518060400160405280601181526020017f43727970746f536861726b7320436c75620000000000000000000000000000008152506040518060400160405280600381526020017f43534300000000000000000000000000000000000000000000000000000000008152508160009080519060200190620001459291906200025e565b5080600190805190602001906200015e9291906200025e565b50505062000181620001756200019060201b60201c565b6200019860201b60201c565b600c54600d8190555062000373565b600033905090565b6000600a60009054906101000a900473ffffffffffffffffffffffffffffffffffffffff16905081600a60006101000a81548173ffffffffffffffffffffffffffffffffffffffff021916908373ffffffffffffffffffffffffffffffffffffffff1602179055508173ffffffffffffffffffffffffffffffffffffffff168173ffffffffffffffffffffffffffffffffffffffff167f8be0079c531659141344cd1fd0a4f28419497f9722a3daafe3b4186f6b6457e060405160405180910390a35050565b8280546200026c906200033d565b90600052602060002090601f016020900481019282620002905760008555620002dc565b82601f10620002ab57805160ff1916838001178555620002dc565b82800160010185558215620002dc579182015b82811115620002db578251825591602001919060010190620002be565b5b509050620002eb9190620002ef565b5090565b5b808211156200030a576000816000905550600101620002f0565b5090565b7f4e487b7100000000000000000000000000000000000000000000000000000000600052602260045260246000fd5b600060028204905060018216806200035657607f821691505b602082108114156200036d576200036c6200030e565b5b50919050565b614ecc80620003836000396000f3fe6080604052600436106102675760003560e01c8063841718a611610144578063b9571721116100b6578063e985e9c51161007a578063e985e9c514610926578063f14c0bcc14610963578063f2fde38b1461098c578063f759867a146109b5578063fd2b0492146109d1578063fe60d12c146109ed57610267565b8063b957172114610850578063c3b754dc14610879578063c634d032146108a2578063c87b56dd146108be578063d547cfb7146108fb57610267565b806395d89b411161010857806395d89b41146107545780639a5d140b1461077f578063a035b1fe146107a8578063a22cb465146107d3578063ab3f5a1a146107fc578063b88d4fde1461082757610267565b8063841718a61461066f5780638462151c146106985780638da5cb5b146106d55780638ecad7211461070057806391b7f5ed1461072b57610267565b806342842e0e116101dd5780636352211e116101a15780636352211e1461054b57806368428a1b146105885780636b8dc355146105b357806370a08231146105de578063715018a61461061b57806372e3a3eb1461063257610267565b806342842e0e146104755780634618163e1461049e5780634f6ccce7146104ba57806353135ca0146104f757806355f804b31461052257610267565b8063119552a11161022f578063119552a11461036557806318160ddd1461039057806323b872dd146103bb5780632f745c59146103e457806332cb6b0c146104215780633f8121a21461044c57610267565b806301ffc9a71461026c57806302ce5813146102a957806306fdde03146102d4578063081812fc146102ff578063095ea7b31461033c575b600080fd5b34801561027857600080fd5b50610293600480360381019061028e919061349e565b610a18565b6040516102a091906134e6565b60405180910390f35b3480156102b557600080fd5b506102be610a92565b6040516102cb91906134e6565b60405180910390f35b3480156102e057600080fd5b506102e9610aa5565b6040516102f6919061359a565b60405180910390f35b34801561030b57600080fd5b50610326600480360381019061032191906135f2565b610b37565b6040516103339190613660565b60405180910390f35b34801561034857600080fd5b50610363600480360381019061035e91906136a7565b610b7d565b005b34801561037157600080fd5b5061037a610c95565b6040516103879190613660565b60405180910390f35b34801561039c57600080fd5b506103a5610cbb565b6040516103b291906136f6565b60405180910390f35b3480156103c757600080fd5b506103e260048036038101906103dd9190613711565b610cc8565b005b3480156103f057600080fd5b5061040b600480360381019061040691906136a7565b610d28565b60405161041891906136f6565b60405180910390f35b34801561042d57600080fd5b50610436610dcd565b60405161044391906136f6565b60405180910390f35b34801561045857600080fd5b50610473600480360381019061046e9190613790565b610dd3565b005b34801561048157600080fd5b5061049c60048036038101906104979190613711565b610df8565b005b6104b860048036038101906104b391906135f2565b610e18565b005b3480156104c657600080fd5b506104e160048036038101906104dc91906135f2565b6110d2565b6040516104ee91906136f6565b60405180910390f35b34801561050357600080fd5b5061050c611143565b60405161051991906134e6565b60405180910390f35b34801561052e57600080fd5b50610549600480360381019061054491906138f2565b611156565b005b34801561055757600080fd5b50610572600480360381019061056d91906135f2565b611178565b60405161057f9190613660565b60405180910390f35b34801561059457600080fd5b5061059d6111ff565b6040516105aa91906134e6565b60405180910390f35b3480156105bf57600080fd5b506105c8611212565b6040516105d591906136f6565b60405180910390f35b3480156105ea57600080fd5b506106056004803603810190610600919061393b565b611218565b60405161061291906136f6565b60405180910390f35b34801561062757600080fd5b506106306112d0565b005b34801561063e57600080fd5b506106596004803603810190610654919061393b565b6112e4565b60405161066691906136f6565b60405180910390f35b34801561067b57600080fd5b5061069660048036038101906106919190613790565b6112fc565b005b3480156106a457600080fd5b506106bf60048036038101906106ba919061393b565b611321565b6040516106cc9190613a26565b60405180910390f35b3480156106e157600080fd5b506106ea6113cf565b6040516106f79190613660565b60405180910390f35b34801561070c57600080fd5b506107156113f9565b60405161072291906136f6565b60405180910390f35b34801561073757600080fd5b50610752600480360381019061074d91906135f2565b6113fe565b005b34801561076057600080fd5b50610769611410565b604051610776919061359a565b60405180910390f35b34801561078b57600080fd5b506107a660048036038101906107a191906135f2565b6114a2565b005b3480156107b457600080fd5b506107bd61154c565b6040516107ca91906136f6565b60405180910390f35b3480156107df57600080fd5b506107fa60048036038101906107f59190613a48565b611552565b005b34801561080857600080fd5b50610811611568565b60405161081e91906136f6565b60405180910390f35b34801561083357600080fd5b5061084e60048036038101906108499190613b29565b61156e565b005b34801561085c57600080fd5b5061087760048036038101906108729190613c74565b6115d0565b005b34801561088557600080fd5b506108a0600480360381019061089b9190613790565b611637565b005b6108bc60048036038101906108b791906135f2565b61165c565b005b3480156108ca57600080fd5b506108e560048036038101906108e091906135f2565b61184c565b6040516108f2919061359a565b60405180910390f35b34801561090757600080fd5b506109106118b4565b60405161091d919061359a565b60405180910390f35b34801561093257600080fd5b5061094d60048036038101906109489190613cbd565b611942565b60405161095a91906134e6565b60405180910390f35b34801561096f57600080fd5b5061098a60048036038101906109859190613dc0565b6119d6565b005b34801561099857600080fd5b506109b360048036038101906109ae919061393b565b611a7a565b005b6109cf60048036038101906109ca91906135f2565b611afe565b005b6109eb60048036038101906109e691906135f2565b611cee565b005b3480156109f957600080fd5b50610a02611d77565b604051610a0f91906136f6565b60405180910390f35b60007f780e9d63000000000000000000000000000000000000000000000000000000007bffffffffffffffffffffffffffffffffffffffffffffffffffffffff1916827bffffffffffffffffffffffffffffffffffffffffffffffffffffffff19161480610a8b5750610a8a82611d7d565b5b9050919050565b600a60159054906101000a900460ff1681565b606060008054610ab490613e67565b80601f0160208091040260200160405190810160405280929190818152602001828054610ae090613e67565b8015610b2d5780601f10610b0257610100808354040283529160200191610b2d565b820191906000526020600020905b815481529060010190602001808311610b1057829003601f168201915b5050505050905090565b6000610b4282611e5f565b6004600083815260200190815260200160002060009054906101000a900473ffffffffffffffffffffffffffffffffffffffff169050919050565b6000610b8882611178565b90508073ffffffffffffffffffffffffffffffffffffffff168373ffffffffffffffffffffffffffffffffffffffff161415610bf9576040517f08c379a0000000000000000000000000000000000000000000000000000000008152600401610bf090613f0b565b60405180910390fd5b8073ffffffffffffffffffffffffffffffffffffffff16610c18611eaa565b73ffffffffffffffffffffffffffffffffffffffff161480610c475750610c4681610c41611eaa565b611942565b5b610c86576040517f08c379a0000000000000000000000000000000000000000000000000000000008152600401610c7d90613f9d565b60405180910390fd5b610c908383611eb2565b505050565b600f60009054906101000a900473ffffffffffffffffffffffffffffffffffffffff1681565b6000600880549050905090565b610cd9610cd3611eaa565b82611f6b565b610d18576040517f08c379a0000000000000000000000000000000000000000000000000000000008152600401610d0f9061402f565b60405180910390fd5b610d23838383612000565b505050565b6000610d3383611218565b8210610d74576040517f08c379a0000000000000000000000000000000000000000000000000000000008152600401610d6b906140c1565b60405180910390fd5b600660008473ffffffffffffffffffffffffffffffffffffffff1673ffffffffffffffffffffffffffffffffffffffff168152602001908152602001600020600083815260200190815260200160002054905092915050565b61199d81565b610ddb6122fa565b80600a60166101000a81548160ff02191690831515021790555050565b610e138383836040518060200160405280600081525061156e565b505050565b6000610e22610cbb565b90506000601060003373ffffffffffffffffffffffffffffffffffffffff1673ffffffffffffffffffffffffffffffffffffffff1681526020019081526020016000205490503273ffffffffffffffffffffffffffffffffffffffff163373ffffffffffffffffffffffffffffffffffffffff1614610ed6576040517f08c379a0000000000000000000000000000000000000000000000000000000008152600401610ecd90614153565b60405180910390fd5b600a60159054906101000a900460ff16610f25576040517f08c379a0000000000000000000000000000000000000000000000000000000008152600401610f1c906141bf565b60405180910390fd5b60008111610f68576040517f08c379a0000000000000000000000000000000000000000000000000000000008152600401610f5f90614251565b60405180910390fd5b80831115610fab576040517f08c379a0000000000000000000000000000000000000000000000000000000008152600401610fa2906142bd565b60405180910390fd5b61199d8383610fba919061430c565b1115610ffb576040517f08c379a0000000000000000000000000000000000000000000000000000000008152600401610ff2906143ae565b60405180910390fd5b82600d5461100991906143ce565b341461104a576040517f08c379a000000000000000000000000000000000000000000000000000000000815260040161104190614474565b60405180910390fd5b82816110569190614494565b601060003373ffffffffffffffffffffffffffffffffffffffff1673ffffffffffffffffffffffffffffffffffffffff1681526020019081526020016000208190555060005b838110156110cc576110b93382856110b4919061430c565b612378565b80806110c4906144c8565b91505061109c565b50505050565b60006110dc610cbb565b821061111d576040517f08c379a000000000000000000000000000000000000000000000000000000000815260040161111490614583565b60405180910390fd5b60088281548110611131576111306145a3565b5b90600052602060002001549050919050565b600a60169054906101000a900460ff1681565b61115e6122fa565b80600e908051906020019061117492919061338f565b5050565b60008061118483612396565b9050600073ffffffffffffffffffffffffffffffffffffffff168173ffffffffffffffffffffffffffffffffffffffff1614156111f6576040517f08c379a00000000000000000000000000000000000000000000000000000000081526004016111ed9061461e565b60405180910390fd5b80915050919050565b600a60149054906101000a900460ff1681565b6101f481565b60008073ffffffffffffffffffffffffffffffffffffffff168273ffffffffffffffffffffffffffffffffffffffff161415611289576040517f08c379a0000000000000000000000000000000000000000000000000000000008152600401611280906146b0565b60405180910390fd5b600360008373ffffffffffffffffffffffffffffffffffffffff1673ffffffffffffffffffffffffffffffffffffffff168152602001908152602001600020549050919050565b6112d86122fa565b6112e260006123d3565b565b60106020528060005260406000206000915090505481565b6113046122fa565b80600a60146101000a81548160ff02191690831515021790555050565b6060600061132e83611218565b905060008167ffffffffffffffff81111561134c5761134b6137c7565b5b60405190808252806020026020018201604052801561137a5781602001602082028036833780820191505090505b50905060005b828110156113c4576113928582610d28565b8282815181106113a5576113a46145a3565b5b60200260200101818152505080806113bc906144c8565b915050611380565b508092505050919050565b6000600a60009054906101000a900473ffffffffffffffffffffffffffffffffffffffff16905090565b601481565b6114066122fa565b80600d8190555050565b60606001805461141f90613e67565b80601f016020809104026020016040519081016040528092919081815260200182805461144b90613e67565b80156114985780601f1061146d57610100808354040283529160200191611498565b820191906000526020600020905b81548152906001019060200180831161147b57829003601f168201915b5050505050905090565b6114aa6122fa565b600b548111156114ef576040517f08c379a00000000000000000000000000000000000000000000000000000000081526004016114e690614742565b60405180910390fd5b80600b60008282546115019190614494565b925050819055506000611512610cbb565b905060005b828110156115475761153433828461152f919061430c565b612378565b808061153f906144c8565b915050611517565b505050565b600d5481565b61156461155d611eaa565b8383612499565b5050565b600c5481565b61157f611579611eaa565b83611f6b565b6115be576040517f08c379a00000000000000000000000000000000000000000000000000000000081526004016115b59061402f565b60405180910390fd5b6115ca84848484612606565b50505050565b6115d86122fa565b806000815181106115ec576115eb6145a3565b5b6020026020010151600f60006101000a81548173ffffffffffffffffffffffffffffffffffffffff021916908373ffffffffffffffffffffffffffffffffffffffff16021790555050565b61163f6122fa565b80600a60156101000a81548160ff02191690831515021790555050565b6000611666610cbb565b90503273ffffffffffffffffffffffffffffffffffffffff163373ffffffffffffffffffffffffffffffffffffffff16146116d6576040517f08c379a00000000000000000000000000000000000000000000000000000000081526004016116cd90614153565b60405180910390fd5b600a60149054906101000a900460ff16611725576040517f08c379a000000000000000000000000000000000000000000000000000000000815260040161171c906147ae565b60405180910390fd5b600082118015611736575060148211155b611775576040517f08c379a000000000000000000000000000000000000000000000000000000000815260040161176c9061481a565b60405180910390fd5b61199d8282611784919061430c565b11156117c5576040517f08c379a00000000000000000000000000000000000000000000000000000000081526004016117bc906143ae565b60405180910390fd5b81600d546117d391906143ce565b3414611814576040517f08c379a000000000000000000000000000000000000000000000000000000000815260040161180b90614474565b60405180910390fd5b60005b828110156118475761183433828461182f919061430c565b612378565b808061183f906144c8565b915050611817565b505050565b606061185782611e5f565b6000611861612662565b9050600081511161188157604051806020016040528060008152506118ac565b8061188b846126f4565b60405160200161189c929190614876565b6040516020818303038152906040525b915050919050565b600e80546118c190613e67565b80601f01602080910402602001604051908101604052809291908181526020018280546118ed90613e67565b801561193a5780601f1061190f5761010080835404028352916020019161193a565b820191906000526020600020905b81548152906001019060200180831161191d57829003601f168201915b505050505081565b6000600560008473ffffffffffffffffffffffffffffffffffffffff1673ffffffffffffffffffffffffffffffffffffffff16815260200190815260200160002060008373ffffffffffffffffffffffffffffffffffffffff1673ffffffffffffffffffffffffffffffffffffffff16815260200190815260200160002060009054906101000a900460ff16905092915050565b6119de6122fa565b60005b8251811015611a75578181815181106119fd576119fc6145a3565b5b602002602001015160106000858481518110611a1c57611a1b6145a3565b5b602002602001015173ffffffffffffffffffffffffffffffffffffffff1673ffffffffffffffffffffffffffffffffffffffff168152602001908152602001600020819055508080611a6d906144c8565b9150506119e1565b505050565b611a826122fa565b600073ffffffffffffffffffffffffffffffffffffffff168173ffffffffffffffffffffffffffffffffffffffff161415611af2576040517f08c379a0000000000000000000000000000000000000000000000000000000008152600401611ae99061490c565b60405180910390fd5b611afb816123d3565b50565b6000611b08610cbb565b90503273ffffffffffffffffffffffffffffffffffffffff163373ffffffffffffffffffffffffffffffffffffffff1614611b78576040517f08c379a0000000000000000000000000000000000000000000000000000000008152600401611b6f90614153565b60405180910390fd5b600a60169054906101000a900460ff16611bc7576040517f08c379a0000000000000000000000000000000000000000000000000000000008152600401611bbe906147ae565b60405180910390fd5b600082118015611bd8575060148211155b611c17576040517f08c379a0000000000000000000000000000000000000000000000000000000008152600401611c0e9061481a565b60405180910390fd5b6101f48282611c26919061430c565b1115611c67576040517f08c379a0000000000000000000000000000000000000000000000000000000008152600401611c5e906143ae565b60405180910390fd5b81600d54611c7591906143ce565b3414611cb6576040517f08c379a0000000000000000000000000000000000000000000000000000000008152600401611cad90614474565b60405180910390fd5b60005b82811015611ce957611cd6338284611cd1919061430c565b612378565b8080611ce1906144c8565b915050611cb9565b505050565b611cf66122fa565b6000606482611d05919061495b565b9050600f60009054906101000a900473ffffffffffffffffffffffffffffffffffffffff1673ffffffffffffffffffffffffffffffffffffffff166108fc606483611d5091906143ce565b9081150290604051600060405180830381858888f19350505050611d7357600080fd5b5050565b600b5481565b60007f80ac58cd000000000000000000000000000000000000000000000000000000007bffffffffffffffffffffffffffffffffffffffffffffffffffffffff1916827bffffffffffffffffffffffffffffffffffffffffffffffffffffffff19161480611e4857507f5b5e139f000000000000000000000000000000000000000000000000000000007bffffffffffffffffffffffffffffffffffffffffffffffffffffffff1916827bffffffffffffffffffffffffffffffffffffffffffffffffffffffff1916145b80611e585750611e57826127cc565b5b9050919050565b611e6881612836565b611ea7576040517f08c379a0000000000000000000000000000000000000000000000000000000008152600401611e9e9061461e565b60405180910390fd5b50565b600033905090565b816004600083815260200190815260200160002060006101000a81548173ffffffffffffffffffffffffffffffffffffffff021916908373ffffffffffffffffffffffffffffffffffffffff160217905550808273ffffffffffffffffffffffffffffffffffffffff16611f2583611178565b73ffffffffffffffffffffffffffffffffffffffff167f8c5be1e5ebec7d5bd14f71427d1e84f3dd0314c0f7b2291e5b200ac8c7c3b92560405160405180910390a45050565b600080611f7783611178565b90508073ffffffffffffffffffffffffffffffffffffffff168473ffffffffffffffffffffffffffffffffffffffff161480611fb95750611fb88185611942565b5b80611ff757508373ffffffffffffffffffffffffffffffffffffffff16611fdf84610b37565b73ffffffffffffffffffffffffffffffffffffffff16145b91505092915050565b8273ffffffffffffffffffffffffffffffffffffffff1661202082611178565b73ffffffffffffffffffffffffffffffffffffffff1614612076576040517f08c379a000000000000000000000000000000000000000000000000000000000815260040161206d906149fe565b60405180910390fd5b600073ffffffffffffffffffffffffffffffffffffffff168273ffffffffffffffffffffffffffffffffffffffff1614156120e6576040517f08c379a00000000000000000000000000000000000000000000000000000000081526004016120dd90614a90565b60405180910390fd5b6120f38383836001612877565b8273ffffffffffffffffffffffffffffffffffffffff1661211382611178565b73ffffffffffffffffffffffffffffffffffffffff1614612169576040517f08c379a0000000000000000000000000000000000000000000000000000000008152600401612160906149fe565b60405180910390fd5b6004600082815260200190815260200160002060006101000a81549073ffffffffffffffffffffffffffffffffffffffff02191690556001600360008573ffffffffffffffffffffffffffffffffffffffff1673ffffffffffffffffffffffffffffffffffffffff168152602001908152602001600020600082825403925050819055506001600360008473ffffffffffffffffffffffffffffffffffffffff1673ffffffffffffffffffffffffffffffffffffffff16815260200190815260200160002060008282540192505081905550816002600083815260200190815260200160002060006101000a81548173ffffffffffffffffffffffffffffffffffffffff021916908373ffffffffffffffffffffffffffffffffffffffff160217905550808273ffffffffffffffffffffffffffffffffffffffff168473ffffffffffffffffffffffffffffffffffffffff167fddf252ad1be2c89b69c2b068fc378daa952ba7f163c4a11628f55a4df523b3ef60405160405180910390a46122f583838360016129d7565b505050565b612302611eaa565b73ffffffffffffffffffffffffffffffffffffffff166123206113cf565b73ffffffffffffffffffffffffffffffffffffffff1614612376576040517f08c379a000000000000000000000000000000000000000000000000000000000815260040161236d90614afc565b60405180910390fd5b565b6123928282604051806020016040528060008152506129dd565b5050565b60006002600083815260200190815260200160002060009054906101000a900473ffffffffffffffffffffffffffffffffffffffff169050919050565b6000600a60009054906101000a900473ffffffffffffffffffffffffffffffffffffffff16905081600a60006101000a81548173ffffffffffffffffffffffffffffffffffffffff021916908373ffffffffffffffffffffffffffffffffffffffff1602179055508173ffffffffffffffffffffffffffffffffffffffff168173ffffffffffffffffffffffffffffffffffffffff167f8be0079c531659141344cd1fd0a4f28419497f9722a3daafe3b4186f6b6457e060405160405180910390a35050565b8173ffffffffffffffffffffffffffffffffffffffff168373ffffffffffffffffffffffffffffffffffffffff161415612508576040517f08c379a00000000000000000000000000000000000000000000000000000000081526004016124ff90614b68565b60405180910390fd5b80600560008573ffffffffffffffffffffffffffffffffffffffff1673ffffffffffffffffffffffffffffffffffffffff16815260200190815260200160002060008473ffffffffffffffffffffffffffffffffffffffff1673ffffffffffffffffffffffffffffffffffffffff16815260200190815260200160002060006101000a81548160ff0219169083151502179055508173ffffffffffffffffffffffffffffffffffffffff168373ffffffffffffffffffffffffffffffffffffffff167f17307eab39ab6107e8899845ad3d59bd9653f200f220920489ca2b5937696c31836040516125f991906134e6565b60405180910390a3505050565b612611848484612000565b61261d84848484612a38565b61265c576040517f08c379a000000000000000000000000000000000000000000000000000000000815260040161265390614bfa565b60405180910390fd5b50505050565b6060600e805461267190613e67565b80601f016020809104026020016040519081016040528092919081815260200182805461269d90613e67565b80156126ea5780601f106126bf576101008083540402835291602001916126ea565b820191906000526020600020905b8154815290600101906020018083116126cd57829003601f168201915b5050505050905090565b60606000600161270384612bcf565b01905060008167ffffffffffffffff811115612722576127216137c7565b5b6040519080825280601f01601f1916602001820160405280156127545781602001600182028036833780820191505090505b509050600082602001820190505b6001156127c1578080600190039150507f3031323334353637383961626364656600000000000000000000000000000000600a86061a8153600a85816127ab576127aa61492c565b5b04945060008514156127bc576127c1565b612762565b819350505050919050565b60007f01ffc9a7000000000000000000000000000000000000000000000000000000007bffffffffffffffffffffffffffffffffffffffffffffffffffffffff1916827bffffffffffffffffffffffffffffffffffffffffffffffffffffffff1916149050919050565b60008073ffffffffffffffffffffffffffffffffffffffff1661285883612396565b73ffffffffffffffffffffffffffffffffffffffff1614159050919050565b61288384848484612d22565b60018111156128c7576040517f08c379a00000000000000000000000000000000000000000000000000000000081526004016128be90614c8c565b60405180910390fd5b6000829050600073ffffffffffffffffffffffffffffffffffffffff168573ffffffffffffffffffffffffffffffffffffffff16141561290f5761290a81612e48565b61294e565b8373ffffffffffffffffffffffffffffffffffffffff168573ffffffffffffffffffffffffffffffffffffffff161461294d5761294c8582612e91565b5b5b600073ffffffffffffffffffffffffffffffffffffffff168473ffffffffffffffffffffffffffffffffffffffff1614156129915761298c81612ffe565b6129d0565b8473ffffffffffffffffffffffffffffffffffffffff168473ffffffffffffffffffffffffffffffffffffffff16146129cf576129ce84826130cf565b5b5b5050505050565b50505050565b6129e7838361314e565b6129f46000848484612a38565b612a33576040517f08c379a0000000000000000000000000000000000000000000000000000000008152600401612a2a90614bfa565b60405180910390fd5b505050565b6000612a598473ffffffffffffffffffffffffffffffffffffffff1661336c565b15612bc2578373ffffffffffffffffffffffffffffffffffffffff1663150b7a02612a82611eaa565b8786866040518563ffffffff1660e01b8152600401612aa49493929190614d01565b602060405180830381600087803b158015612abe57600080fd5b505af1925050508015612aef57506040513d601f19601f82011682018060405250810190612aec9190614d62565b60015b612b72573d8060008114612b1f576040519150601f19603f3d011682016040523d82523d6000602084013e612b24565b606091505b50600081511415612b6a576040517f08c379a0000000000000000000000000000000000000000000000000000000008152600401612b6190614bfa565b60405180910390fd5b805181602001fd5b63150b7a0260e01b7bffffffffffffffffffffffffffffffffffffffffffffffffffffffff1916817bffffffffffffffffffffffffffffffffffffffffffffffffffffffff191614915050612bc7565b600190505b949350505050565b600080600090507a184f03e93ff9f4daa797ed6e38ed64bf6a1f0100000000000000008310612c2d577a184f03e93ff9f4daa797ed6e38ed64bf6a1f0100000000000000008381612c2357612c2261492c565b5b0492506040810190505b6d04ee2d6d415b85acef81000000008310612c6a576d04ee2d6d415b85acef81000000008381612c6057612c5f61492c565b5b0492506020810190505b662386f26fc100008310612c9957662386f26fc100008381612c8f57612c8e61492c565b5b0492506010810190505b6305f5e1008310612cc2576305f5e1008381612cb857612cb761492c565b5b0492506008810190505b6127108310612ce7576127108381612cdd57612cdc61492c565b5b0492506004810190505b60648310612d0a5760648381612d0057612cff61492c565b5b0492506002810190505b600a8310612d19576001810190505b80915050919050565b6001811115612e4257600073ffffffffffffffffffffffffffffffffffffffff168473ffffffffffffffffffffffffffffffffffffffff1614612db65780600360008673ffffffffffffffffffffffffffffffffffffffff1673ffffffffffffffffffffffffffffffffffffffff1681526020019081526020016000206000828254612dae9190614494565b925050819055505b600073ffffffffffffffffffffffffffffffffffffffff168373ffffffffffffffffffffffffffffffffffffffff1614612e415780600360008573ffffffffffffffffffffffffffffffffffffffff1673ffffffffffffffffffffffffffffffffffffffff1681526020019081526020016000206000828254612e39919061430c565b925050819055505b5b50505050565b6008805490506009600083815260200190815260200160002081905550600881908060018154018082558091505060019003906000526020600020016000909190919091505550565b60006001612e9e84611218565b612ea89190614494565b9050600060076000848152602001908152602001600020549050818114612f8d576000600660008673ffffffffffffffffffffffffffffffffffffffff1673ffffffffffffffffffffffffffffffffffffffff168152602001908152602001600020600084815260200190815260200160002054905080600660008773ffffffffffffffffffffffffffffffffffffffff1673ffffffffffffffffffffffffffffffffffffffff168152602001908152602001600020600084815260200190815260200160002081905550816007600083815260200190815260200160002081905550505b6007600084815260200190815260200160002060009055600660008573ffffffffffffffffffffffffffffffffffffffff1673ffffffffffffffffffffffffffffffffffffffff16815260200190815260200160002060008381526020019081526020016000206000905550505050565b600060016008805490506130129190614494565b9050600060096000848152602001908152602001600020549050600060088381548110613042576130416145a3565b5b906000526020600020015490508060088381548110613064576130636145a3565b5b9060005260206000200181905550816009600083815260200190815260200160002081905550600960008581526020019081526020016000206000905560088054806130b3576130b2614d8f565b5b6001900381819060005260206000200160009055905550505050565b60006130da83611218565b905081600660008573ffffffffffffffffffffffffffffffffffffffff1673ffffffffffffffffffffffffffffffffffffffff168152602001908152602001600020600083815260200190815260200160002081905550806007600084815260200190815260200160002081905550505050565b600073ffffffffffffffffffffffffffffffffffffffff168273ffffffffffffffffffffffffffffffffffffffff1614156131be576040517f08c379a00000000000000000000000000000000000000000000000000000000081526004016131b590614e0a565b60405180910390fd5b6131c781612836565b15613207576040517f08c379a00000000000000000000000000000000000000000000000000000000081526004016131fe90614e76565b60405180910390fd5b613215600083836001612877565b61321e81612836565b1561325e576040517f08c379a000000000000000000000000000000000000000000000000000000000815260040161325590614e76565b60405180910390fd5b6001600360008473ffffffffffffffffffffffffffffffffffffffff1673ffffffffffffffffffffffffffffffffffffffff16815260200190815260200160002060008282540192505081905550816002600083815260200190815260200160002060006101000a81548173ffffffffffffffffffffffffffffffffffffffff021916908373ffffffffffffffffffffffffffffffffffffffff160217905550808273ffffffffffffffffffffffffffffffffffffffff16600073ffffffffffffffffffffffffffffffffffffffff167fddf252ad1be2c89b69c2b068fc378daa952ba7f163c4a11628f55a4df523b3ef60405160405180910390a46133686000838360016129d7565b5050565b6000808273ffffffffffffffffffffffffffffffffffffffff163b119050919050565b82805461339b90613e67565b90600052602060002090601f0160209004810192826133bd5760008555613404565b82601f106133d657805160ff1916838001178555613404565b82800160010185558215613404579182015b828111156134035782518255916020019190600101906133e8565b5b5090506134119190613415565b5090565b5b8082111561342e576000816000905550600101613416565b5090565b6000604051905090565b600080fd5b600080fd5b60007fffffffff0000000000000000000000000000000000000000000000000000000082169050919050565b61347b81613446565b811461348657600080fd5b50565b60008135905061349881613472565b92915050565b6000602082840312156134b4576134b361343c565b5b60006134c284828501613489565b91505092915050565b60008115159050919050565b6134e0816134cb565b82525050565b60006020820190506134fb60008301846134d7565b92915050565b600081519050919050565b600082825260208201905092915050565b60005b8381101561353b578082015181840152602081019050613520565b8381111561354a576000848401525b50505050565b6000601f19601f8301169050919050565b600061356c82613501565b613576818561350c565b935061358681856020860161351d565b61358f81613550565b840191505092915050565b600060208201905081810360008301526135b48184613561565b905092915050565b6000819050919050565b6135cf816135bc565b81146135da57600080fd5b50565b6000813590506135ec816135c6565b92915050565b6000602082840312156136085761360761343c565b5b6000613616848285016135dd565b91505092915050565b600073ffffffffffffffffffffffffffffffffffffffff82169050919050565b600061364a8261361f565b9050919050565b61365a8161363f565b82525050565b60006020820190506136756000830184613651565b92915050565b6136848161363f565b811461368f57600080fd5b50565b6000813590506136a18161367b565b92915050565b600080604083850312156136be576136bd61343c565b5b60006136cc85828601613692565b92505060206136dd858286016135dd565b9150509250929050565b6136f0816135bc565b82525050565b600060208201905061370b60008301846136e7565b92915050565b60008060006060848603121561372a5761372961343c565b5b600061373886828701613692565b935050602061374986828701613692565b925050604061375a868287016135dd565b9150509250925092565b61376d816134cb565b811461377857600080fd5b50565b60008135905061378a81613764565b92915050565b6000602082840312156137a6576137a561343c565b5b60006137b48482850161377b565b91505092915050565b600080fd5b600080fd5b7f4e487b7100000000000000000000000000000000000000000000000000000000600052604160045260246000fd5b6137ff82613550565b810181811067ffffffffffffffff8211171561381e5761381d6137c7565b5b80604052505050565b6000613831613432565b905061383d82826137f6565b919050565b600067ffffffffffffffff82111561385d5761385c6137c7565b5b61386682613550565b9050602081019050919050565b82818337600083830152505050565b600061389561389084613842565b613827565b9050828152602081018484840111156138b1576138b06137c2565b5b6138bc848285613873565b509392505050565b600082601f8301126138d9576138d86137bd565b5b81356138e9848260208601613882565b91505092915050565b6000602082840312156139085761390761343c565b5b600082013567ffffffffffffffff81111561392657613925613441565b5b613932848285016138c4565b91505092915050565b6000602082840312156139515761395061343c565b5b600061395f84828501613692565b91505092915050565b600081519050919050565b600082825260208201905092915050565b6000819050602082019050919050565b61399d816135bc565b82525050565b60006139af8383613994565b60208301905092915050565b6000602082019050919050565b60006139d382613968565b6139dd8185613973565b93506139e883613984565b8060005b83811015613a19578151613a0088826139a3565b9750613a0b836139bb565b9250506001810190506139ec565b5085935050505092915050565b60006020820190508181036000830152613a4081846139c8565b905092915050565b60008060408385031215613a5f57613a5e61343c565b5b6000613a6d85828601613692565b9250506020613a7e8582860161377b565b9150509250929050565b600067ffffffffffffffff821115613aa357613aa26137c7565b5b613aac82613550565b9050602081019050919050565b6000613acc613ac784613a88565b613827565b905082815260208101848484011115613ae857613ae76137c2565b5b613af3848285613873565b509392505050565b600082601f830112613b1057613b0f6137bd565b5b8135613b20848260208601613ab9565b91505092915050565b60008060008060808587031215613b4357613b4261343c565b5b6000613b5187828801613692565b9450506020613b6287828801613692565b9350506040613b73878288016135dd565b925050606085013567ffffffffffffffff811115613b9457613b93613441565b5b613ba087828801613afb565b91505092959194509250565b600067ffffffffffffffff821115613bc757613bc66137c7565b5b602082029050602081019050919050565b600080fd5b6000613bf0613beb84613bac565b613827565b90508083825260208201905060208402830185811115613c1357613c12613bd8565b5b835b81811015613c3c5780613c288882613692565b845260208401935050602081019050613c15565b5050509392505050565b600082601f830112613c5b57613c5a6137bd565b5b8135613c6b848260208601613bdd565b91505092915050565b600060208284031215613c8a57613c8961343c565b5b600082013567ffffffffffffffff811115613ca857613ca7613441565b5b613cb484828501613c46565b91505092915050565b60008060408385031215613cd457613cd361343c565b5b6000613ce285828601613692565b9250506020613cf385828601613692565b9150509250929050565b600067ffffffffffffffff821115613d1857613d176137c7565b5b602082029050602081019050919050565b6000613d3c613d3784613cfd565b613827565b90508083825260208201905060208402830185811115613d5f57613d5e613bd8565b5b835b81811015613d885780613d7488826135dd565b845260208401935050602081019050613d61565b5050509392505050565b600082601f830112613da757613da66137bd565b5b8135613db7848260208601613d29565b91505092915050565b60008060408385031215613dd757613dd661343c565b5b600083013567ffffffffffffffff811115613df557613df4613441565b5b613e0185828601613c46565b925050602083013567ffffffffffffffff811115613e2257613e21613441565b5b613e2e85828601613d92565b9150509250929050565b7f4e487b7100000000000000000000000000000000000000000000000000000000600052602260045260246000fd5b60006002820490506001821680613e7f57607f821691505b60208210811415613e9357613e92613e38565b5b50919050565b7f4552433732313a20617070726f76616c20746f2063757272656e74206f776e6560008201527f7200000000000000000000000000000000000000000000000000000000000000602082015250565b6000613ef560218361350c565b9150613f0082613e99565b604082019050919050565b60006020820190508181036000830152613f2481613ee8565b9050919050565b7f4552433732313a20617070726f76652063616c6c6572206973206e6f7420746f60008201527f6b656e206f776e6572206f7220617070726f76656420666f7220616c6c000000602082015250565b6000613f87603d8361350c565b9150613f9282613f2b565b604082019050919050565b60006020820190508181036000830152613fb681613f7a565b9050919050565b7f4552433732313a2063616c6c6572206973206e6f7420746f6b656e206f776e6560008201527f72206f7220617070726f76656400000000000000000000000000000000000000602082015250565b6000614019602d8361350c565b915061402482613fbd565b604082019050919050565b600060208201905081810360008301526140488161400c565b9050919050565b7f455243373231456e756d657261626c653a206f776e657220696e646578206f7560008201527f74206f6620626f756e6473000000000000000000000000000000000000000000602082015250565b60006140ab602b8361350c565b91506140b68261404f565b604082019050919050565b600060208201905081810360008301526140da8161409e565b9050919050565b7f4e6f207472616e73616374696f6e2066726f6d20736d61727420636f6e74726160008201527f6374732100000000000000000000000000000000000000000000000000000000602082015250565b600061413d60248361350c565b9150614148826140e1565b604082019050919050565b6000602082019050818103600083015261416c81614130565b9050919050565b7f57686974656c6973742069736e27742061637469766500000000000000000000600082015250565b60006141a960168361350c565b91506141b482614173565b602082019050919050565b600060208201905081810360008301526141d88161419c565b9050919050565b7f4e6f20536861726b7320726573657276656420666f7220796f7572206164647260008201527f6573730000000000000000000000000000000000000000000000000000000000602082015250565b600061423b60238361350c565b9150614246826141df565b604082019050919050565b6000602082019050818103600083015261426a8161422e565b9050919050565b7f43616e2774206d696e74206d6f7265207468616e207265736572766564000000600082015250565b60006142a7601d8361350c565b91506142b282614271565b602082019050919050565b600060208201905081810360008301526142d68161429a565b9050919050565b7f4e487b7100000000000000000000000000000000000000000000000000000000600052601160045260246000fd5b6000614317826135bc565b9150614322836135bc565b9250827fffffffffffffffffffffffffffffffffffffffffffffffffffffffffffffffff03821115614357576143566142dd565b5b828201905092915050565b7f507572636861736520776f756c6420657863656564206d617820737570706c79600082015250565b600061439860208361350c565b91506143a382614362565b602082019050919050565b600060208201905081810360008301526143c78161438b565b9050919050565b60006143d9826135bc565b91506143e4836135bc565b9250817fffffffffffffffffffffffffffffffffffffffffffffffffffffffffffffffff048311821515161561441d5761441c6142dd565b5b828202905092915050565b7f4e6f7420656e6f7567682045544820666f72207472616e73616374696f6e0000600082015250565b600061445e601e8361350c565b915061446982614428565b602082019050919050565b6000602082019050818103600083015261448d81614451565b9050919050565b600061449f826135bc565b91506144aa836135bc565b9250828210156144bd576144bc6142dd565b5b828203905092915050565b60006144d3826135bc565b91507fffffffffffffffffffffffffffffffffffffffffffffffffffffffffffffffff821415614506576145056142dd565b5b600182019050919050565b7f455243373231456e756d657261626c653a20676c6f62616c20696e646578206f60008201527f7574206f6620626f756e64730000000000000000000000000000000000000000602082015250565b600061456d602c8361350c565b915061457882614511565b604082019050919050565b6000602082019050818103600083015261459c81614560565b9050919050565b7f4e487b7100000000000000000000000000000000000000000000000000000000600052603260045260246000fd5b7f4552433732313a20696e76616c696420746f6b656e2049440000000000000000600082015250565b600061460860188361350c565b9150614613826145d2565b602082019050919050565b60006020820190508181036000830152614637816145fb565b9050919050565b7f4552433732313a2061646472657373207a65726f206973206e6f74206120766160008201527f6c6964206f776e65720000000000000000000000000000000000000000000000602082015250565b600061469a60298361350c565b91506146a58261463e565b604082019050919050565b600060208201905081810360008301526146c98161468d565b9050919050565b7f43616e27742072657365727665206d6f7265207468616e2073657420616d6f7560008201527f6e74000000000000000000000000000000000000000000000000000000000000602082015250565b600061472c60228361350c565b9150614737826146d0565b604082019050919050565b6000602082019050818103600083015261475b8161471f565b9050919050565b7f53616c652069736e277420616374697665000000000000000000000000000000600082015250565b600061479860118361350c565b91506147a382614762565b602082019050919050565b600060208201905081810360008301526147c78161478b565b9050919050565b7f4d617820323020536861726b7320706572207472616e73616374696f6e000000600082015250565b6000614804601d8361350c565b915061480f826147ce565b602082019050919050565b60006020820190508181036000830152614833816147f7565b9050919050565b600081905092915050565b600061485082613501565b61485a818561483a565b935061486a81856020860161351d565b80840191505092915050565b60006148828285614845565b915061488e8284614845565b91508190509392505050565b7f4f776e61626c653a206e6577206f776e657220697320746865207a65726f206160008201527f6464726573730000000000000000000000000000000000000000000000000000602082015250565b60006148f660268361350c565b91506149018261489a565b604082019050919050565b60006020820190508181036000830152614925816148e9565b9050919050565b7f4e487b7100000000000000000000000000000000000000000000000000000000600052601260045260246000fd5b6000614966826135bc565b9150614971836135bc565b9250826149815761498061492c565b5b828204905092915050565b7f4552433732313a207472616e736665722066726f6d20696e636f72726563742060008201527f6f776e6572000000000000000000000000000000000000000000000000000000602082015250565b60006149e860258361350c565b91506149f38261498c565b604082019050919050565b60006020820190508181036000830152614a17816149db565b9050919050565b7f4552433732313a207472616e7366657220746f20746865207a65726f2061646460008201527f7265737300000000000000000000000000000000000000000000000000000000602082015250565b6000614a7a60248361350c565b9150614a8582614a1e565b604082019050919050565b60006020820190508181036000830152614aa981614a6d565b9050919050565b7f4f776e61626c653a2063616c6c6572206973206e6f7420746865206f776e6572600082015250565b6000614ae660208361350c565b9150614af182614ab0565b602082019050919050565b60006020820190508181036000830152614b1581614ad9565b9050919050565b7f4552433732313a20617070726f766520746f2063616c6c657200000000000000600082015250565b6000614b5260198361350c565b9150614b5d82614b1c565b602082019050919050565b60006020820190508181036000830152614b8181614b45565b9050919050565b7f4552433732313a207472616e7366657220746f206e6f6e20455243373231526560008201527f63656976657220696d706c656d656e7465720000000000000000000000000000602082015250565b6000614be460328361350c565b9150614bef82614b88565b604082019050919050565b60006020820190508181036000830152614c1381614bd7565b9050919050565b7f455243373231456e756d657261626c653a20636f6e736563757469766520747260008201527f616e7366657273206e6f7420737570706f727465640000000000000000000000602082015250565b6000614c7660358361350c565b9150614c8182614c1a565b604082019050919050565b60006020820190508181036000830152614ca581614c69565b9050919050565b600081519050919050565b600082825260208201905092915050565b6000614cd382614cac565b614cdd8185614cb7565b9350614ced81856020860161351d565b614cf681613550565b840191505092915050565b6000608082019050614d166000830187613651565b614d236020830186613651565b614d3060408301856136e7565b8181036060830152614d428184614cc8565b905095945050505050565b600081519050614d5c81613472565b92915050565b600060208284031215614d7857614d7761343c565b5b6000614d8684828501614d4d565b91505092915050565b7f4e487b7100000000000000000000000000000000000000000000000000000000600052603160045260246000fd5b7f4552433732313a206d696e7420746f20746865207a65726f2061646472657373600082015250565b6000614df460208361350c565b9150614dff82614dbe565b602082019050919050565b60006020820190508181036000830152614e2381614de7565b9050919050565b7f4552433732313a20746f6b656e20616c7265616479206d696e74656400000000600082015250565b6000614e60601c8361350c565b9150614e6b82614e2a565b602082019050919050565b60006020820190508181036000830152614e8f81614e53565b905091905056fea2646970667358221220ef95fb82b74444b559ecc791f2a9bdd19d75d7cb8328ad2f7f55bf777fa93bcd64736f6c63430008090033",
  "immutableReferences": {},
  "source": "// SPDX-License-Identifier: MIT\r\npragma solidity 0.8.9;\r\n\r\nimport '@openzeppelin/contracts/token/ERC721/extensions/ERC721Enumerable.sol';\r\nimport '@openzeppelin/contracts/access/Ownable.sol';\r\n\r\ncontract CryptoSharksClub is ERC721Enumerable, Ownable {\r\n    using Address for address;\r\n    \r\n    bool public saleActive = false;\r\n    bool public whitelistActive = false;\r\n    bool public presaleActive = false;\r\n\r\n    uint256 public reserved = 200;\r\n\r\n    uint256 public initial_price = 0.04 ether;\r\n    uint256 public price;\r\n\r\n    uint256 public constant MAX_SUPPLY = 6557;\r\n    uint256 public constant MAX_PRESALE_SUPPLY = 500;\r\n    uint256 public constant MAX_MINT_PER_TX = 20;\r\n\r\n    string public baseTokenURI = \"http://167.172.241.48\";\r\n\r\n    address public a1;\r\n\r\n    mapping (address => uint256) public whitelistReserved;\r\n\r\n    constructor () ERC721 (\"CryptoSharks Club\", \"CSC\") {\r\n        price = initial_price;\r\n    }\r\n\r\n    function _baseURI() internal view virtual override returns (string memory) {\r\n        return baseTokenURI;\r\n    }\r\n\r\n    function tokensOfOwner(address addr) public view returns(uint256[] memory) {\r\n        uint256 tokenCount = balanceOf(addr);\r\n        uint256[] memory tokensId = new uint256[](tokenCount);\r\n        for(uint256 i; i < tokenCount; i++){\r\n            tokensId[i] = tokenOfOwnerByIndex(addr, i);\r\n        }\r\n        return tokensId;\r\n    }\r\n\r\n    function mintWhitelist(uint256 _amount) public payable {\r\n        uint256 supply = totalSupply();\r\n        uint256 reservedAmt = whitelistReserved[msg.sender];\r\n        require(msg.sender == tx.origin,            \"No transaction from smart contracts!\");\r\n        require( whitelistActive,                   \"Whitelist isn't active\" );\r\n        require( reservedAmt > 0,                   \"No Sharks reserved for your address\" );\r\n        require( _amount <= reservedAmt,            \"Can't mint more than reserved\" );\r\n        require( supply + _amount <= MAX_SUPPLY,    \"Purchase would exceed max supply\" );\r\n        require( msg.value == price * _amount,      \"Not enough ETH for transaction\" );\r\n        whitelistReserved[msg.sender] = reservedAmt - _amount;\r\n        for(uint256 i; i < _amount; i++){\r\n            _safeMint( msg.sender, supply + i );\r\n        }\r\n    }\r\n\r\n    function mintPresale(uint256 _amount) public payable {\r\n        uint256 supply = totalSupply();\r\n        require(msg.sender == tx.origin,                    \"No transaction from smart contracts!\");        \r\n        require( presaleActive,                             \"Sale isn't active\" );\r\n        require( _amount > 0 && _amount <= MAX_MINT_PER_TX, \"Max 20 Sharks per transaction\" );\r\n        require( supply + _amount <= MAX_PRESALE_SUPPLY,    \"Purchase would exceed max supply\" );\r\n        require( msg.value == price * _amount,              \"Not enough ETH for transaction\" );\r\n        for(uint256 i; i < _amount; i++){\r\n            _safeMint( msg.sender, supply + i );\r\n        }\r\n    }\r\n\r\n    function mintToken(uint256 _amount) public payable {\r\n        uint256 supply = totalSupply();\r\n        require(msg.sender == tx.origin,                    \"No transaction from smart contracts!\");       \r\n        require( saleActive,                                \"Sale isn't active\" );\r\n        require( _amount > 0 && _amount <= MAX_MINT_PER_TX, \"Max 20 Sharks per transaction\" );\r\n        require( supply + _amount <= MAX_SUPPLY,            \"Purchase would exceed max supply\" );\r\n        require( msg.value == price * _amount,              \"Not enough ETH for transaction\" );\r\n        for(uint256 i; i < _amount; i++){\r\n            _safeMint( msg.sender, supply + i );\r\n        }\r\n    }\r\n\r\n    function mintReserved(uint256 _amount) public onlyOwner {\r\n        // Limited to a publicly set amount\r\n        require( _amount <= reserved, \"Can't reserve more than set amount\" );\r\n        reserved -= _amount;\r\n        uint256 supply = totalSupply();\r\n        for(uint256 i; i < _amount; i++){\r\n            _safeMint( msg.sender, supply + i );\r\n        }\r\n    }\r\n    \r\n    function editWhitelistReserved(address[] memory _a, uint256[] memory _amount) public onlyOwner {\r\n        for(uint256 i; i < _a.length; i++){\r\n            whitelistReserved[_a[i]] = _amount[i];\r\n        }\r\n    }\r\n\r\n    function setWhitelistActive(bool val) public onlyOwner {\r\n        whitelistActive = val;\r\n    }\r\n\r\n    function setPresaleActive(bool val) public onlyOwner {\r\n        presaleActive = val;\r\n    }\r\n\r\n    function setSaleActive(bool val) public onlyOwner {\r\n        saleActive = val;\r\n    }\r\n\r\n    function setBaseURI(string memory baseURI) public onlyOwner {\r\n        baseTokenURI = baseURI;\r\n    }\r\n\r\n    function setPrice(uint256 newPrice) public onlyOwner {\r\n        price = newPrice;\r\n    }\r\n    \r\n    function setAddresses(address[] memory _a) public onlyOwner {\r\n        a1 = _a[0];\r\n    }\r\n\r\n    function withdrawTeam(uint256 amount) public payable onlyOwner {\r\n        uint256 percent = amount / 100;\r\n        require(payable(a1).send(percent * 100));\r\n    }\r\n}",
  "sourcePath": "C:\\Users\\FRANCISCO RIVAS\\Desktop\\Proyecto\\ASD\\contracts\\CryptoSharksClub.sol",
  "compiler": {
    "name": "solc",
    "version": "0.8.9+commit.e5eed63a.Emscripten.clang"
  },
  "schemaVersion": "3.4.11",
  "updatedAt": "2023-02-25T17:38:47.349Z",
  "networkType": "ethereum",
  "devdoc": {
    "kind": "dev",
    "methods": {
      "approve(address,uint256)": {
        "details": "See {IERC721-approve}."
      },
      "balanceOf(address)": {
        "details": "See {IERC721-balanceOf}."
      },
      "getApproved(uint256)": {
        "details": "See {IERC721-getApproved}."
      },
      "isApprovedForAll(address,address)": {
        "details": "See {IERC721-isApprovedForAll}."
      },
      "name()": {
        "details": "See {IERC721Metadata-name}."
      },
      "owner()": {
        "details": "Returns the address of the current owner."
      },
      "ownerOf(uint256)": {
        "details": "See {IERC721-ownerOf}."
      },
      "renounceOwnership()": {
        "details": "Leaves the contract without owner. It will not be possible to call `onlyOwner` functions anymore. Can only be called by the current owner. NOTE: Renouncing ownership will leave the contract without an owner, thereby removing any functionality that is only available to the owner."
      },
      "safeTransferFrom(address,address,uint256)": {
        "details": "See {IERC721-safeTransferFrom}."
      },
      "safeTransferFrom(address,address,uint256,bytes)": {
        "details": "See {IERC721-safeTransferFrom}."
      },
      "setApprovalForAll(address,bool)": {
        "details": "See {IERC721-setApprovalForAll}."
      },
      "supportsInterface(bytes4)": {
        "details": "See {IERC165-supportsInterface}."
      },
      "symbol()": {
        "details": "See {IERC721Metadata-symbol}."
      },
      "tokenByIndex(uint256)": {
        "details": "See {IERC721Enumerable-tokenByIndex}."
      },
      "tokenOfOwnerByIndex(address,uint256)": {
        "details": "See {IERC721Enumerable-tokenOfOwnerByIndex}."
      },
      "tokenURI(uint256)": {
        "details": "See {IERC721Metadata-tokenURI}."
      },
      "totalSupply()": {
        "details": "See {IERC721Enumerable-totalSupply}."
      },
      "transferFrom(address,address,uint256)": {
        "details": "See {IERC721-transferFrom}."
      },
      "transferOwnership(address)": {
        "details": "Transfers ownership of the contract to a new account (`newOwner`). Can only be called by the current owner."
      }
    },
    "version": 1
  },
  "userdoc": {
    "kind": "user",
    "methods": {},
    "version": 1
  }
}